{
  "_format": "hh-sol-artifact-1",
  "contractName": "MoneyRouter",
  "sourceName": "contracts/MoneyRouter.sol",
  "abi": [
    {
      "inputs": [
        {
          "internalType": "address",
          "name": "_owner",
          "type": "address"
        }
      ],
      "stateMutability": "nonpayable",
      "type": "constructor"
    },
    {
      "inputs": [],
      "name": "Unauthorized",
      "type": "error"
    },
    {
      "inputs": [
        {
          "internalType": "address",
          "name": "",
          "type": "address"
        }
      ],
      "name": "accountList",
      "outputs": [
        {
          "internalType": "bool",
          "name": "",
          "type": "bool"
        }
      ],
      "stateMutability": "view",
      "type": "function"
    },
    {
      "inputs": [
        {
          "internalType": "address",
          "name": "_account",
          "type": "address"
        }
      ],
      "name": "allowAccount",
      "outputs": [],
      "stateMutability": "nonpayable",
      "type": "function"
    },
    {
      "inputs": [
        {
          "internalType": "address",
          "name": "_newOwner",
          "type": "address"
        }
      ],
      "name": "changeOwner",
      "outputs": [],
      "stateMutability": "nonpayable",
      "type": "function"
    },
    {
      "inputs": [
        {
          "internalType": "contract ISuperToken",
          "name": "token",
          "type": "address"
        },
        {
          "internalType": "address",
          "name": "receiver",
          "type": "address"
        },
        {
          "internalType": "int96",
          "name": "flowRate",
          "type": "int96"
        }
      ],
      "name": "createFlowFromContract",
      "outputs": [],
      "stateMutability": "nonpayable",
      "type": "function"
    },
    {
      "inputs": [
        {
          "internalType": "contract ISuperToken",
          "name": "token",
          "type": "address"
        },
        {
          "internalType": "int96",
          "name": "flowRate",
          "type": "int96"
        }
      ],
      "name": "createFlowIntoContract",
      "outputs": [],
      "stateMutability": "nonpayable",
      "type": "function"
    },
    {
      "inputs": [
        {
          "internalType": "contract ISuperToken",
          "name": "token",
          "type": "address"
        },
        {
          "internalType": "address",
          "name": "receiver",
          "type": "address"
        }
      ],
      "name": "deleteFlowFromContract",
      "outputs": [],
      "stateMutability": "nonpayable",
      "type": "function"
    },
    {
      "inputs": [
        {
          "internalType": "contract ISuperToken",
          "name": "token",
          "type": "address"
        }
      ],
      "name": "deleteFlowIntoContract",
      "outputs": [],
      "stateMutability": "nonpayable",
      "type": "function"
    },
    {
      "inputs": [],
      "name": "owner",
      "outputs": [
        {
          "internalType": "address",
          "name": "",
          "type": "address"
        }
      ],
      "stateMutability": "view",
      "type": "function"
    },
    {
      "inputs": [
        {
          "internalType": "address",
          "name": "_account",
          "type": "address"
        }
      ],
      "name": "removeAccount",
      "outputs": [],
      "stateMutability": "nonpayable",
      "type": "function"
    },
    {
      "inputs": [
        {
          "internalType": "contract ISuperToken",
          "name": "token",
          "type": "address"
        },
        {
          "internalType": "uint256",
          "name": "amount",
          "type": "uint256"
        }
      ],
      "name": "sendLumpSumToContract",
      "outputs": [],
      "stateMutability": "nonpayable",
      "type": "function"
    },
    {
      "inputs": [
        {
          "internalType": "contract ISuperToken",
          "name": "token",
          "type": "address"
        },
        {
          "internalType": "address",
          "name": "receiver",
          "type": "address"
        },
        {
          "internalType": "int96",
          "name": "flowRate",
          "type": "int96"
        }
      ],
      "name": "updateFlowFromContract",
      "outputs": [],
      "stateMutability": "nonpayable",
      "type": "function"
    },
    {
      "inputs": [
        {
          "internalType": "contract ISuperToken",
          "name": "token",
          "type": "address"
        },
        {
          "internalType": "int96",
          "name": "flowRate",
          "type": "int96"
        }
      ],
      "name": "updateFlowIntoContract",
      "outputs": [],
      "stateMutability": "nonpayable",
      "type": "function"
    },
    {
      "inputs": [
        {
          "internalType": "contract ISuperToken",
          "name": "token",
          "type": "address"
        },
        {
          "internalType": "uint256",
          "name": "amount",
          "type": "uint256"
        }
      ],
      "name": "withdrawFunds",
      "outputs": [],
      "stateMutability": "nonpayable",
      "type": "function"
    }
  ],
  "bytecode": "0x60806040523480156200001157600080fd5b506040516200236d3803806200236d8339818101604052810190620000379190620000e8565b806000806101000a81548173ffffffffffffffffffffffffffffffffffffffff021916908373ffffffffffffffffffffffffffffffffffffffff160217905550506200011a565b600080fd5b600073ffffffffffffffffffffffffffffffffffffffff82169050919050565b6000620000b08262000083565b9050919050565b620000c281620000a3565b8114620000ce57600080fd5b50565b600081519050620000e281620000b7565b92915050565b6000602082840312156200010157620001006200007e565b5b60006200011184828501620000d1565b91505092915050565b612243806200012a6000396000f3fe608060405234801561001057600080fd5b50600436106100cf5760003560e01c8063a5510b321161008c578063c107532911610066578063c1075329146101d2578063c2f7c654146101ee578063c4740a951461020a578063d3a07fcd14610226576100cf565b8063a5510b321461017e578063a6f9dae11461019a578063b9f7b12b146101b6576100cf565b8063097e69ef146100d45780631acc948c146100f057806326ff92e41461010c5780632fca9249146101285780636715e19f146101445780638da5cb5b14610160575b600080fd5b6100ee60048036038101906100e99190611a2b565b610256565b005b61010a60048036038101906101059190611a7e565b610364565b005b61012660048036038101906101219190611ae1565b610443565b005b610142600480360381019061013d9190611b21565b6105a5565b005b61015e60048036038101906101599190611b61565b6106b4565b005b6101686107c0565b6040516101759190611b9d565b60405180910390f35b61019860048036038101906101939190611b21565b6107e4565b005b6101b460048036038101906101af9190611a7e565b6108f3565b005b6101d060048036038101906101cb9190611a2b565b6109bb565b005b6101ec60048036038101906101e79190611ae1565b610ac9565b005b61020860048036038101906102039190611bb8565b610c29565b005b610224600480360381019061021f9190611a7e565b610d36565b005b610240600480360381019061023b9190611a7e565b610e16565b60405161024d9190611c13565b60405180910390f35b600160003373ffffffffffffffffffffffffffffffffffffffff1673ffffffffffffffffffffffffffffffffffffffff16815260200190815260200160002060009054906101000a900460ff161580156102fc575060008054906101000a900473ffffffffffffffffffffffffffffffffffffffff1673ffffffffffffffffffffffffffffffffffffffff163373ffffffffffffffffffffffffffffffffffffffff1614155b15610333576040517f82b4290000000000000000000000000000000000000000000000000000000000815260040160405180910390fd5b61035e82828573ffffffffffffffffffffffffffffffffffffffff16610e369092919063ffffffff16565b50505050565b60008054906101000a900473ffffffffffffffffffffffffffffffffffffffff1673ffffffffffffffffffffffffffffffffffffffff163373ffffffffffffffffffffffffffffffffffffffff16146103e9576040517f82b4290000000000000000000000000000000000000000000000000000000000815260040160405180910390fd5b60018060008373ffffffffffffffffffffffffffffffffffffffff1673ffffffffffffffffffffffffffffffffffffffff16815260200190815260200160002060006101000a81548160ff02191690831515021790555050565b600160003373ffffffffffffffffffffffffffffffffffffffff1673ffffffffffffffffffffffffffffffffffffffff16815260200190815260200160002060009054906101000a900460ff161580156104e9575060008054906101000a900473ffffffffffffffffffffffffffffffffffffffff1673ffffffffffffffffffffffffffffffffffffffff163373ffffffffffffffffffffffffffffffffffffffff1614155b15610520576040517f82b4290000000000000000000000000000000000000000000000000000000000815260040160405180910390fd5b8173ffffffffffffffffffffffffffffffffffffffff166323b872dd3330846040518463ffffffff1660e01b815260040161055d93929190611c3d565b6020604051808303816000875af115801561057c573d6000803e3d6000fd5b505050506040513d601f19601f820116820180604052508101906105a09190611ca0565b505050565b600160003373ffffffffffffffffffffffffffffffffffffffff1673ffffffffffffffffffffffffffffffffffffffff16815260200190815260200160002060009054906101000a900460ff1615801561064b575060008054906101000a900473ffffffffffffffffffffffffffffffffffffffff1673ffffffffffffffffffffffffffffffffffffffff163373ffffffffffffffffffffffffffffffffffffffff1614155b15610682576040517f82b4290000000000000000000000000000000000000000000000000000000000815260040160405180910390fd5b6106af3330838573ffffffffffffffffffffffffffffffffffffffff16610fe9909392919063ffffffff16565b505050565b600160003373ffffffffffffffffffffffffffffffffffffffff1673ffffffffffffffffffffffffffffffffffffffff16815260200190815260200160002060009054906101000a900460ff1615801561075a575060008054906101000a900473ffffffffffffffffffffffffffffffffffffffff1673ffffffffffffffffffffffffffffffffffffffff163373ffffffffffffffffffffffffffffffffffffffff1614155b15610791576040517f82b4290000000000000000000000000000000000000000000000000000000000815260040160405180910390fd5b6107bc33308373ffffffffffffffffffffffffffffffffffffffff1661119f9092919063ffffffff16565b5050565b60008054906101000a900473ffffffffffffffffffffffffffffffffffffffff1681565b600160003373ffffffffffffffffffffffffffffffffffffffff1673ffffffffffffffffffffffffffffffffffffffff16815260200190815260200160002060009054906101000a900460ff1615801561088a575060008054906101000a900473ffffffffffffffffffffffffffffffffffffffff1673ffffffffffffffffffffffffffffffffffffffff163373ffffffffffffffffffffffffffffffffffffffff1614155b156108c1576040517f82b4290000000000000000000000000000000000000000000000000000000000815260040160405180910390fd5b6108ee3330838573ffffffffffffffffffffffffffffffffffffffff16611352909392919063ffffffff16565b505050565b60008054906101000a900473ffffffffffffffffffffffffffffffffffffffff1673ffffffffffffffffffffffffffffffffffffffff163373ffffffffffffffffffffffffffffffffffffffff1614610978576040517f82b4290000000000000000000000000000000000000000000000000000000000815260040160405180910390fd5b806000806101000a81548173ffffffffffffffffffffffffffffffffffffffff021916908373ffffffffffffffffffffffffffffffffffffffff16021790555050565b600160003373ffffffffffffffffffffffffffffffffffffffff1673ffffffffffffffffffffffffffffffffffffffff16815260200190815260200160002060009054906101000a900460ff16158015610a61575060008054906101000a900473ffffffffffffffffffffffffffffffffffffffff1673ffffffffffffffffffffffffffffffffffffffff163373ffffffffffffffffffffffffffffffffffffffff1614155b15610a98576040517f82b4290000000000000000000000000000000000000000000000000000000000815260040160405180910390fd5b610ac382828573ffffffffffffffffffffffffffffffffffffffff166115089092919063ffffffff16565b50505050565b600160003373ffffffffffffffffffffffffffffffffffffffff1673ffffffffffffffffffffffffffffffffffffffff16815260200190815260200160002060009054906101000a900460ff16158015610b6f575060008054906101000a900473ffffffffffffffffffffffffffffffffffffffff1673ffffffffffffffffffffffffffffffffffffffff163373ffffffffffffffffffffffffffffffffffffffff1614155b15610ba6576040517f82b4290000000000000000000000000000000000000000000000000000000000815260040160405180910390fd5b8173ffffffffffffffffffffffffffffffffffffffff1663a9059cbb33836040518363ffffffff1660e01b8152600401610be1929190611ccd565b6020604051808303816000875af1158015610c00573d6000803e3d6000fd5b505050506040513d601f19601f82011682018060405250810190610c249190611ca0565b505050565b600160003373ffffffffffffffffffffffffffffffffffffffff1673ffffffffffffffffffffffffffffffffffffffff16815260200190815260200160002060009054906101000a900460ff16158015610ccf575060008054906101000a900473ffffffffffffffffffffffffffffffffffffffff1673ffffffffffffffffffffffffffffffffffffffff163373ffffffffffffffffffffffffffffffffffffffff1614155b15610d06576040517f82b4290000000000000000000000000000000000000000000000000000000000815260040160405180910390fd5b610d3130828473ffffffffffffffffffffffffffffffffffffffff1661119f9092919063ffffffff16565b505050565b60008054906101000a900473ffffffffffffffffffffffffffffffffffffffff1673ffffffffffffffffffffffffffffffffffffffff163373ffffffffffffffffffffffffffffffffffffffff1614610dbb576040517f82b4290000000000000000000000000000000000000000000000000000000000815260040160405180910390fd5b6000600160008373ffffffffffffffffffffffffffffffffffffffff1673ffffffffffffffffffffffffffffffffffffffff16815260200190815260200160002060006101000a81548160ff02191690831515021790555050565b60016020528060005260406000206000915054906101000a900460ff1681565b6000806000610e44866116bb565b915091508173ffffffffffffffffffffffffffffffffffffffff166339255d5b828373ffffffffffffffffffffffffffffffffffffffff166350209a628a8a8a600067ffffffffffffffff811115610e9f57610e9e611cf6565b5b6040519080825280601f01601f191660200182016040528015610ed15781602001600182028036833780820191505090505b50604051602401610ee59493929190611e2c565b604051602081830303815290604052915060e01b6020820180517bffffffffffffffffffffffffffffffffffffffffffffffffffffffff8381831617835250505050600067ffffffffffffffff811115610f4257610f41611cf6565b5b6040519080825280601f01601f191660200182016040528015610f745781602001600182028036833780820191505090505b506040518463ffffffff1660e01b8152600401610f9393929190611e99565b6000604051808303816000875af1158015610fb2573d6000803e3d6000fd5b505050506040513d6000823e3d601f19601f82011682018060405250810190610fdb9190611fd5565b506001925050509392505050565b6000806000610ff7876116bb565b915091508173ffffffffffffffffffffffffffffffffffffffff166339255d5b828373ffffffffffffffffffffffffffffffffffffffff1663354b95908b8b8b8b600067ffffffffffffffff81111561105357611052611cf6565b5b6040519080825280601f01601f1916602001820160405280156110855781602001600182028036833780820191505090505b5060405160240161109a95949392919061201e565b604051602081830303815290604052915060e01b6020820180517bffffffffffffffffffffffffffffffffffffffffffffffffffffffff8381831617835250505050600067ffffffffffffffff8111156110f7576110f6611cf6565b5b6040519080825280601f01601f1916602001820160405280156111295781602001600182028036833780820191505090505b506040518463ffffffff1660e01b815260040161114893929190611e99565b6000604051808303816000875af1158015611167573d6000803e3d6000fd5b505050506040513d6000823e3d601f19601f820116820180604052508101906111909190611fd5565b50600192505050949350505050565b60008060006111ad866116bb565b915091508173ffffffffffffffffffffffffffffffffffffffff166339255d5b828373ffffffffffffffffffffffffffffffffffffffff1663b4b333c68a8a8a600067ffffffffffffffff81111561120857611207611cf6565b5b6040519080825280601f01601f19166020018201604052801561123a5781602001600182028036833780820191505090505b5060405160240161124e9493929190612078565b604051602081830303815290604052915060e01b6020820180517bffffffffffffffffffffffffffffffffffffffffffffffffffffffff8381831617835250505050600067ffffffffffffffff8111156112ab576112aa611cf6565b5b6040519080825280601f01601f1916602001820160405280156112dd5781602001600182028036833780820191505090505b506040518463ffffffff1660e01b81526004016112fc93929190611e99565b6000604051808303816000875af115801561131b573d6000803e3d6000fd5b505050506040513d6000823e3d601f19601f820116820180604052508101906113449190611fd5565b506001925050509392505050565b6000806000611360876116bb565b915091508173ffffffffffffffffffffffffffffffffffffffff166339255d5b828373ffffffffffffffffffffffffffffffffffffffff166394229ecb8b8b8b8b600067ffffffffffffffff8111156113bc576113bb611cf6565b5b6040519080825280601f01601f1916602001820160405280156113ee5781602001600182028036833780820191505090505b5060405160240161140395949392919061201e565b604051602081830303815290604052915060e01b6020820180517bffffffffffffffffffffffffffffffffffffffffffffffffffffffff8381831617835250505050600067ffffffffffffffff8111156114605761145f611cf6565b5b6040519080825280601f01601f1916602001820160405280156114925781602001600182028036833780820191505090505b506040518463ffffffff1660e01b81526004016114b193929190611e99565b6000604051808303816000875af11580156114d0573d6000803e3d6000fd5b505050506040513d6000823e3d601f19601f820116820180604052508101906114f99190611fd5565b50600192505050949350505050565b6000806000611516866116bb565b915091508173ffffffffffffffffffffffffffffffffffffffff166339255d5b828373ffffffffffffffffffffffffffffffffffffffff166362fc305e8a8a8a600067ffffffffffffffff81111561157157611570611cf6565b5b6040519080825280601f01601f1916602001820160405280156115a35781602001600182028036833780820191505090505b506040516024016115b79493929190611e2c565b604051602081830303815290604052915060e01b6020820180517bffffffffffffffffffffffffffffffffffffffffffffffffffffffff8381831617835250505050600067ffffffffffffffff81111561161457611613611cf6565b5b6040519080825280601f01601f1916602001820160405280156116465781602001600182028036833780820191505090505b506040518463ffffffff1660e01b815260040161166593929190611e99565b6000604051808303816000875af1158015611684573d6000803e3d6000fd5b505050506040513d6000823e3d601f19601f820116820180604052508101906116ad9190611fd5565b506001925050509392505050565b6000807f65599bf746e17a00ea62e3610586992d88101b78eec3cf380706621fb97ea8375491507fb969d79d88acd02d04ed7ee7d43b949e7daf093d363abcfbbc43dfdfd1ce969a549050600073ffffffffffffffffffffffffffffffffffffffff168173ffffffffffffffffffffffffffffffffffffffff16036118c357600073ffffffffffffffffffffffffffffffffffffffff168273ffffffffffffffffffffffffffffffffffffffff16036117e0578273ffffffffffffffffffffffffffffffffffffffff166320bc44256040518163ffffffff1660e01b8152600401602060405180830381865afa1580156117b9573d6000803e3d6000fd5b505050506040513d601f19601f820116820180604052508101906117dd91906120d9565b91505b8173ffffffffffffffffffffffffffffffffffffffff1663b6d200de7fa9214cc96615e0085d3bb077758db69497dc2dce3b2b1e97bc93c3d18d83efd36040518263ffffffff1660e01b81526004016118399190612158565b602060405180830381865afa158015611856573d6000803e3d6000fd5b505050506040513d601f19601f8201168201806040525081019061187a91906121b1565b9050817f65599bf746e17a00ea62e3610586992d88101b78eec3cf380706621fb97ea83755807fb969d79d88acd02d04ed7ee7d43b949e7daf093d363abcfbbc43dfdfd1ce969a555b600073ffffffffffffffffffffffffffffffffffffffff168273ffffffffffffffffffffffffffffffffffffffff1603611900576118ff6121de565b5b600073ffffffffffffffffffffffffffffffffffffffff168173ffffffffffffffffffffffffffffffffffffffff160361193d5761193c6121de565b5b915091565b6000604051905090565b600080fd5b600080fd5b600073ffffffffffffffffffffffffffffffffffffffff82169050919050565b600061198182611956565b9050919050565b600061199382611976565b9050919050565b6119a381611988565b81146119ae57600080fd5b50565b6000813590506119c08161199a565b92915050565b6119cf81611976565b81146119da57600080fd5b50565b6000813590506119ec816119c6565b92915050565b600081600b0b9050919050565b611a08816119f2565b8114611a1357600080fd5b50565b600081359050611a25816119ff565b92915050565b600080600060608486031215611a4457611a4361194c565b5b6000611a52868287016119b1565b9350506020611a63868287016119dd565b9250506040611a7486828701611a16565b9150509250925092565b600060208284031215611a9457611a9361194c565b5b6000611aa2848285016119dd565b91505092915050565b6000819050919050565b611abe81611aab565b8114611ac957600080fd5b50565b600081359050611adb81611ab5565b92915050565b60008060408385031215611af857611af761194c565b5b6000611b06858286016119b1565b9250506020611b1785828601611acc565b9150509250929050565b60008060408385031215611b3857611b3761194c565b5b6000611b46858286016119b1565b9250506020611b5785828601611a16565b9150509250929050565b600060208284031215611b7757611b7661194c565b5b6000611b85848285016119b1565b91505092915050565b611b9781611976565b82525050565b6000602082019050611bb26000830184611b8e565b92915050565b60008060408385031215611bcf57611bce61194c565b5b6000611bdd858286016119b1565b9250506020611bee858286016119dd565b9150509250929050565b60008115159050919050565b611c0d81611bf8565b82525050565b6000602082019050611c286000830184611c04565b92915050565b611c3781611aab565b82525050565b6000606082019050611c526000830186611b8e565b611c5f6020830185611b8e565b611c6c6040830184611c2e565b949350505050565b611c7d81611bf8565b8114611c8857600080fd5b50565b600081519050611c9a81611c74565b92915050565b600060208284031215611cb657611cb561194c565b5b6000611cc484828501611c8b565b91505092915050565b6000604082019050611ce26000830185611b8e565b611cef6020830184611c2e565b9392505050565b7f4e487b7100000000000000000000000000000000000000000000000000000000600052604160045260246000fd5b6000819050919050565b6000611d4a611d45611d4084611956565b611d25565b611956565b9050919050565b6000611d5c82611d2f565b9050919050565b6000611d6e82611d51565b9050919050565b611d7e81611d63565b82525050565b611d8d816119f2565b82525050565b600081519050919050565b600082825260208201905092915050565b60005b83811015611dcd578082015181840152602081019050611db2565b83811115611ddc576000848401525b50505050565b6000601f19601f8301169050919050565b6000611dfe82611d93565b611e088185611d9e565b9350611e18818560208601611daf565b611e2181611de2565b840191505092915050565b6000608082019050611e416000830187611d75565b611e4e6020830186611b8e565b611e5b6040830185611d84565b8181036060830152611e6d8184611df3565b905095945050505050565b6000611e8382611d51565b9050919050565b611e9381611e78565b82525050565b6000606082019050611eae6000830186611e8a565b8181036020830152611ec08185611df3565b90508181036040830152611ed48184611df3565b9050949350505050565b600080fd5b600080fd5b611ef182611de2565b810181811067ffffffffffffffff82111715611f1057611f0f611cf6565b5b80604052505050565b6000611f23611942565b9050611f2f8282611ee8565b919050565b600067ffffffffffffffff821115611f4f57611f4e611cf6565b5b611f5882611de2565b9050602081019050919050565b6000611f78611f7384611f34565b611f19565b905082815260208101848484011115611f9457611f93611ee3565b5b611f9f848285611daf565b509392505050565b600082601f830112611fbc57611fbb611ede565b5b8151611fcc848260208601611f65565b91505092915050565b600060208284031215611feb57611fea61194c565b5b600082015167ffffffffffffffff81111561200957612008611951565b5b61201584828501611fa7565b91505092915050565b600060a0820190506120336000830188611d75565b6120406020830187611b8e565b61204d6040830186611b8e565b61205a6060830185611d84565b818103608083015261206c8184611df3565b90509695505050505050565b600060808201905061208d6000830187611d75565b61209a6020830186611b8e565b6120a76040830185611b8e565b81810360608301526120b98184611df3565b905095945050505050565b6000815190506120d3816119c6565b92915050565b6000602082840312156120ef576120ee61194c565b5b60006120fd848285016120c4565b91505092915050565b6000819050919050565b6000819050919050565b60008160001b9050919050565b600061214261213d61213884612106565b61211a565b612110565b9050919050565b61215281612127565b82525050565b600060208201905061216d6000830184612149565b92915050565b600061217e82611976565b9050919050565b61218e81612173565b811461219957600080fd5b50565b6000815190506121ab81612185565b92915050565b6000602082840312156121c7576121c661194c565b5b60006121d58482850161219c565b91505092915050565b7f4e487b7100000000000000000000000000000000000000000000000000000000600052600160045260246000fdfea26469706673582212205e6eb0b7d2194b16579837000b71d62776b550534edebaa8e312c5406209ed7664736f6c634300080e0033",
  "linkReferences": {},
  "deployedLinkReferences": {}
}